{
  "_format": "hh-sol-artifact-1",
  "contractName": "BlackjackSimple",
  "sourceName": "contracts/BlackJackGame.sol",
  "abi": [
    {
      "anonymous": false,
      "inputs": [
        {
          "indexed": false,
          "internalType": "uint8",
          "name": "card",
          "type": "uint8"
        },
        {
          "indexed": false,
          "internalType": "uint8",
          "name": "total",
          "type": "uint8"
        }
      ],
      "name": "DealerHit",
      "type": "event"
    },
    {
      "anonymous": false,
      "inputs": [
        {
          "indexed": false,
          "internalType": "address",
          "name": "player",
          "type": "address"
        },
        {
          "indexed": false,
          "internalType": "string",
          "name": "result",
          "type": "string"
        },
        {
          "indexed": false,
          "internalType": "uint8",
          "name": "playerTotal",
          "type": "uint8"
        },
        {
          "indexed": false,
          "internalType": "uint8",
          "name": "dealerTotal",
          "type": "uint8"
        }
      ],
      "name": "GameFinished",
      "type": "event"
    },
    {
      "anonymous": false,
      "inputs": [
        {
          "indexed": false,
          "internalType": "address",
          "name": "player",
          "type": "address"
        }
      ],
      "name": "GameStarted",
      "type": "event"
    },
    {
      "anonymous": false,
      "inputs": [
        {
          "indexed": false,
          "internalType": "address",
          "name": "player",
          "type": "address"
        },
        {
          "indexed": false,
          "internalType": "uint8",
          "name": "card",
          "type": "uint8"
        },
        {
          "indexed": false,
          "internalType": "uint8",
          "name": "total",
          "type": "uint8"
        }
      ],
      "name": "PlayerHit",
      "type": "event"
    },
    {
      "anonymous": false,
      "inputs": [
        {
          "indexed": false,
          "internalType": "address",
          "name": "player",
          "type": "address"
        },
        {
          "indexed": false,
          "internalType": "uint8",
          "name": "total",
          "type": "uint8"
        }
      ],
      "name": "PlayerStand",
      "type": "event"
    },
    {
      "inputs": [
        {
          "internalType": "address",
          "name": "",
          "type": "address"
        }
      ],
      "name": "games",
      "outputs": [
        {
          "internalType": "enum BlackjackSimple.GameState",
          "name": "state",
          "type": "uint8"
        },
        {
          "internalType": "address",
          "name": "player",
          "type": "address"
        },
        {
          "internalType": "string",
          "name": "result",
          "type": "string"
        }
      ],
      "stateMutability": "view",
      "type": "function"
    },
    {
      "inputs": [],
      "name": "getGame",
      "outputs": [
        {
          "internalType": "uint8[]",
          "name": "playerCards",
          "type": "uint8[]"
        },
        {
          "internalType": "uint8[]",
          "name": "dealerCards",
          "type": "uint8[]"
        },
        {
          "internalType": "string",
          "name": "result",
          "type": "string"
        },
        {
          "internalType": "enum BlackjackSimple.GameState",
          "name": "state",
          "type": "uint8"
        }
      ],
      "stateMutability": "view",
      "type": "function"
    },
    {
      "inputs": [],
      "name": "hit",
      "outputs": [],
      "stateMutability": "nonpayable",
      "type": "function"
    },
    {
      "inputs": [],
      "name": "owner",
      "outputs": [
        {
          "internalType": "string",
          "name": "",
          "type": "string"
        }
      ],
      "stateMutability": "view",
      "type": "function"
    },
    {
      "inputs": [],
      "name": "restartGame",
      "outputs": [],
      "stateMutability": "nonpayable",
      "type": "function"
    },
    {
      "inputs": [],
      "name": "stand",
      "outputs": [],
      "stateMutability": "nonpayable",
      "type": "function"
    },
    {
      "inputs": [],
      "name": "startGame",
      "outputs": [],
      "stateMutability": "nonpayable",
      "type": "function"
    }
  ],
  "bytecode": "0x60806040526040518060400160405280601881526020017f4d6172636f20416e746f6e696f2056616c64657370696e6f00000000000000008152506000908161004891906102ab565b5034801561005557600080fd5b5061037d565b600081519050919050565b7f4e487b7100000000000000000000000000000000000000000000000000000000600052604160045260246000fd5b7f4e487b7100000000000000000000000000000000000000000000000000000000600052602260045260246000fd5b600060028204905060018216806100dc57607f821691505b6020821081036100ef576100ee610095565b5b50919050565b60008190508160005260206000209050919050565b60006020601f8301049050919050565b600082821b905092915050565b6000600883026101577fffffffffffffffffffffffffffffffffffffffffffffffffffffffffffffffff8261011a565b610161868361011a565b95508019841693508086168417925050509392505050565b6000819050919050565b6000819050919050565b60006101a86101a361019e84610179565b610183565b610179565b9050919050565b6000819050919050565b6101c28361018d565b6101d66101ce826101af565b848454610127565b825550505050565b600090565b6101eb6101de565b6101f68184846101b9565b505050565b5b8181101561021a5761020f6000826101e3565b6001810190506101fc565b5050565b601f82111561025f57610230816100f5565b6102398461010a565b81016020851015610248578190505b61025c6102548561010a565b8301826101fb565b50505b505050565b600082821c905092915050565b600061028260001984600802610264565b1980831691505092915050565b600061029b8383610271565b9150826002028217905092915050565b6102b48261005b565b67ffffffffffffffff8111156102cd576102cc610066565b5b6102d782546100c4565b6102e282828561021e565b600060209050601f8311600181146103155760008415610303578287015190505b61030d858261028f565b865550610375565b601f198416610323866100f5565b60005b8281101561034b57848901518255600182019150602085019450602081019050610326565b868310156103685784890151610364601f891682610271565b8355505b6001600288020188555050505b505050505050565b6120f08061038c6000396000f3fe608060405234801561001057600080fd5b506004361061007d5760003560e01c80638d25af041161005b5780638d25af04146100df5780638da5cb5b146100e9578063c2897b1014610107578063d65ab5f2146101115761007d565b80632ae3594a146100825780634494fd9f1461008c57806379131a19146100ad575b600080fd5b61008a61011b565b005b6100946104a5565b6040516100a49493929190611810565b60405180910390f35b6100c760048036038101906100c291906118cd565b610697565b6040516100d693929190611909565b60405180910390f35b6100e7610776565b005b6100f1610781565b6040516100fe9190611947565b60405180910390f35b61010f61080f565b005b610119610e1a565b005b60018060038111156101305761012f611799565b5b600160003373ffffffffffffffffffffffffffffffffffffffff1673ffffffffffffffffffffffffffffffffffffffff16815260200190815260200160002060020160009054906101000a900460ff16600381111561019257610191611799565b5b146101d2576040517f08c379a00000000000000000000000000000000000000000000000000000000081526004016101c9906119b5565b60405180910390fd5b6000600160003373ffffffffffffffffffffffffffffffffffffffff1673ffffffffffffffffffffffffffffffffffffffff168152602001908152602001600020905060006102556040518060400160405280600381526020017f4849540000000000000000000000000000000000000000000000000000000000815250610e25565b9050816000018190806001815401808255809150506001900390600052602060002090602091828204019190069091909190916101000a81548160ff021916908360ff16021790555060006103218360000180548060200260200160405190810160405280929190818152602001828054801561031757602002820191906000526020600020906000905b82829054906101000a900460ff1660ff16815260200190600101906020826000010492830192600103820291508084116102e05790505b5050505050610e76565b90507ff17e3dfcb921e0a674e8a8df9ca1da80e816954b1543a22ca14477fa5221ae7c338383604051610356939291906119e4565b60405180910390a160158160ff16111561049f5760038360020160006101000a81548160ff0219169083600381111561039257610391611799565b5b02179055506040518060400160405280601a81526020017f506c617965722042757374732e204465616c65722057696e73210000000000008152508360030190816103dd9190611c60565b507f983d315921bbcfd1d6803a3ecc48f7f3cc1fd22bd65e7ad5399959069ffd261a3384600301836104868760010180548060200260200160405190810160405280929190818152602001828054801561047c57602002820191906000526020600020906000905b82829054906101000a900460ff1660ff16815260200190600101906020826000010492830192600103820291508084116104455790505b5050505050610e76565b6040516104969493929190611db6565b60405180910390a15b50505050565b6060806060600080600160003373ffffffffffffffffffffffffffffffffffffffff1673ffffffffffffffffffffffffffffffffffffffff16815260200190815260200160002090508060000181600101826003018360020160009054906101000a900460ff168380548060200260200160405190810160405280929190818152602001828054801561057d57602002820191906000526020600020906000905b82829054906101000a900460ff1660ff16815260200190600101906020826000010492830192600103820291508084116105465790505b50505050509350828054806020026020016040519081016040528092919081815260200182805480156105f557602002820191906000526020600020906000905b82829054906101000a900460ff1660ff16815260200190600101906020826000010492830192600103820291508084116105be5790505b5050505050925081805461060890611a79565b80601f016020809104026020016040519081016040528092919081815260200182805461063490611a79565b80156106815780601f1061065657610100808354040283529160200191610681565b820191906000526020600020905b81548152906001019060200180831161066457829003601f168201915b5050505050915094509450945094505090919293565b60016020528060005260406000206000915090508060020160009054906101000a900460ff16908060020160019054906101000a900473ffffffffffffffffffffffffffffffffffffffff16908060030180546106f390611a79565b80601f016020809104026020016040519081016040528092919081815260200182805461071f90611a79565b801561076c5780601f106107415761010080835404028352916020019161076c565b820191906000526020600020905b81548152906001019060200180831161074f57829003601f168201915b5050505050905083565b61077f33610f3d565b565b6000805461078e90611a79565b80601f01602080910402602001604051908101604052809291908181526020018280546107ba90611a79565b80156108075780601f106107dc57610100808354040283529160200191610807565b820191906000526020600020905b8154815290600101906020018083116107ea57829003601f168201915b505050505081565b600180600381111561082457610823611799565b5b600160003373ffffffffffffffffffffffffffffffffffffffff1673ffffffffffffffffffffffffffffffffffffffff16815260200190815260200160002060020160009054906101000a900460ff16600381111561088657610885611799565b5b146108c6576040517f08c379a00000000000000000000000000000000000000000000000000000000081526004016108bd906119b5565b60405180910390fd5b6000600160003373ffffffffffffffffffffffffffffffffffffffff1673ffffffffffffffffffffffffffffffffffffffff168152602001908152602001600020905060028160020160006101000a81548160ff0219169083600381111561093157610930611799565b5b02179055507fefcd6ca5555a0603d3bb6e1954b2abf98ddb7f63aac9f4f13be10565cea29085336109d9836000018054806020026020016040519081016040528092919081815260200182805480156109cf57602002820191906000526020600020906000905b82829054906101000a900460ff1660ff16815260200190600101906020826000010492830192600103820291508084116109985790505b5050505050610e76565b6040516109e7929190611e02565b60405180910390a16000610a7282600101805480602002602001604051908101604052809291908181526020018280548015610a6857602002820191906000526020600020906000905b82829054906101000a900460ff1660ff1681526020019060010190602082600001049283019260010382029150808411610a315790505b5050505050610e76565b90505b60118160ff161015610bcc576000610ac16040518060400160405280600a81526020017f4445414c45525f48495400000000000000000000000000000000000000000000815250610e25565b9050826001018190806001815401808255809150506001900390600052602060002090602091828204019190069091909190916101000a81548160ff021916908360ff160217905550610b8b83600101805480602002602001604051908101604052809291908181526020018280548015610b8157602002820191906000526020600020906000905b82829054906101000a900460ff1660ff1681526020019060010190602082600001049283019260010382029150808411610b4a5790505b5050505050610e76565b91507f7350c1c406604811988f3872a9343502ae3ca69ce67a32c8b5efc0f1165e85368183604051610bbe929190611e2b565b60405180910390a150610a75565b6000610c4f83600001805480602002602001604051908101604052809291908181526020018280548015610c4557602002820191906000526020600020906000905b82829054906101000a900460ff1660ff1681526020019060010190602082600001049283019260010382029150808411610c0e5790505b5050505050610e76565b905060038360020160006101000a81548160ff02191690836003811115610c7957610c78611799565b5b021790555060158260ff161115610cd6576040518060400160405280601a81526020017f4465616c65722042757374732e20506c617965722057696e7321000000000000815250836003019081610cd09190611c60565b50610dd4565b8060ff168260ff161115610d30576040518060400160405280600c81526020017f4465616c65722057696e73210000000000000000000000000000000000000000815250836003019081610d2a9190611c60565b50610dd3565b8060ff168260ff161015610d8a576040518060400160405280600c81526020017f506c617965722057696e73210000000000000000000000000000000000000000815250836003019081610d849190611c60565b50610dd2565b6040518060400160405280600b81526020017f5075736820284472617729000000000000000000000000000000000000000000815250836003019081610dd09190611c60565b505b5b5b7f983d315921bbcfd1d6803a3ecc48f7f3cc1fd22bd65e7ad5399959069ffd261a33846003018385604051610e0c9493929190611db6565b60405180910390a150505050565b610e2333610f3d565b565b60006001600b42443386604051602001610e429493929190611ef9565b6040516020818303038152906040528051906020012060001c610e659190611f72565b610e6f9190611fd2565b9050919050565b600080600090506000915060005b8351811015610ef7576000848281518110610ea257610ea1612006565b5b6020026020010151905060018160ff1603610eda57600183610ec49190612035565b9250600b84610ed39190612035565b9350610ee9565b8084610ee69190612035565b93505b508080600101915050610e84565b505b60158260ff16118015610f0f575060008160ff16115b15610f3757600a82610f21919061206a565b9150600181610f30919061206a565b9050610ef9565b50919050565b6000600160008373ffffffffffffffffffffffffffffffffffffffff1673ffffffffffffffffffffffffffffffffffffffff1681526020019081526020016000209050600160008373ffffffffffffffffffffffffffffffffffffffff1673ffffffffffffffffffffffffffffffffffffffff16815260200190815260200160002060008082016000610fd091906115b9565b600182016000610fe091906115b9565b6002820160006101000a81549060ff02191690556002820160016101000a81549073ffffffffffffffffffffffffffffffffffffffff021916905560038201600061102b91906115e1565b5050818160020160016101000a81548173ffffffffffffffffffffffffffffffffffffffff021916908373ffffffffffffffffffffffffffffffffffffffff160217905550806000016110b26040518060400160405280600781526020017f504c415945523100000000000000000000000000000000000000000000000000815250610e25565b90806001815401808255809150506001900390600052602060002090602091828204019190069091909190916101000a81548160ff021916908360ff160217905550806000016111366040518060400160405280600781526020017f504c415945523200000000000000000000000000000000000000000000000000815250610e25565b90806001815401808255809150506001900390600052602060002090602091828204019190069091909190916101000a81548160ff021916908360ff160217905550806001016111ba6040518060400160405280600781526020017f4445414c45523100000000000000000000000000000000000000000000000000815250610e25565b90806001815401808255809150506001900390600052602060002090602091828204019190069091909190916101000a81548160ff021916908360ff1602179055508060010161123e6040518060400160405280600781526020017f4445414c45523200000000000000000000000000000000000000000000000000815250610e25565b90806001815401808255809150506001900390600052602060002090602091828204019190069091909190916101000a81548160ff021916908360ff16021790555060018160020160006101000a81548160ff021916908360038111156112a8576112a7611799565b5b02179055507f67cf7f1535e1c1323fe4e76266f7d55f0c1f67fdf449db65e014f9d35881514d826040516112dc919061209f565b60405180910390a17ff17e3dfcb921e0a674e8a8df9ca1da80e816954b1543a22ca14477fa5221ae7c828260000160008154811061131d5761131c612006565b5b90600052602060002090602091828204019190069054906101000a900460ff166113be846000018054806020026020016040519081016040528092919081815260200182805480156113b457602002820191906000526020600020906000905b82829054906101000a900460ff1660ff168152602001906001019060208260000104928301926001038202915080841161137d5790505b5050505050610e76565b6040516113cd939291906119e4565b60405180910390a17ff17e3dfcb921e0a674e8a8df9ca1da80e816954b1543a22ca14477fa5221ae7c828260000160018154811061140e5761140d612006565b5b90600052602060002090602091828204019190069054906101000a900460ff166114af846000018054806020026020016040519081016040528092919081815260200182805480156114a557602002820191906000526020600020906000905b82829054906101000a900460ff1660ff168152602001906001019060208260000104928301926001038202915080841161146e5790505b5050505050610e76565b6040516114be939291906119e4565b60405180910390a17f7350c1c406604811988f3872a9343502ae3ca69ce67a32c8b5efc0f1165e8536816001016000815481106114fe576114fd612006565b5b90600052602060002090602091828204019190069054906101000a900460ff1661159f8360010180548060200260200160405190810160405280929190818152602001828054801561159557602002820191906000526020600020906000905b82829054906101000a900460ff1660ff168152602001906001019060208260000104928301926001038202915080841161155e5790505b5050505050610e76565b6040516115ad929190611e2b565b60405180910390a15050565b50805460008255601f0160209004906000526020600020908101906115de9190611621565b50565b5080546115ed90611a79565b6000825580601f106115ff575061161e565b601f01602090049060005260206000209081019061161d9190611621565b5b50565b5b8082111561163a576000816000905550600101611622565b5090565b600081519050919050565b600082825260208201905092915050565b6000819050602082019050919050565b600060ff82169050919050565b6116808161166a565b82525050565b60006116928383611677565b60208301905092915050565b6000602082019050919050565b60006116b68261163e565b6116c08185611649565b93506116cb8361165a565b8060005b838110156116fc5781516116e38882611686565b97506116ee8361169e565b9250506001810190506116cf565b5085935050505092915050565b600081519050919050565b600082825260208201905092915050565b60005b83811015611743578082015181840152602081019050611728565b60008484015250505050565b6000601f19601f8301169050919050565b600061176b82611709565b6117758185611714565b9350611785818560208601611725565b61178e8161174f565b840191505092915050565b7f4e487b7100000000000000000000000000000000000000000000000000000000600052602160045260246000fd5b600481106117d9576117d8611799565b5b50565b60008190506117ea826117c8565b919050565b60006117fa826117dc565b9050919050565b61180a816117ef565b82525050565b6000608082019050818103600083015261182a81876116ab565b9050818103602083015261183e81866116ab565b905081810360408301526118528185611760565b90506118616060830184611801565b95945050505050565b600080fd5b600073ffffffffffffffffffffffffffffffffffffffff82169050919050565b600061189a8261186f565b9050919050565b6118aa8161188f565b81146118b557600080fd5b50565b6000813590506118c7816118a1565b92915050565b6000602082840312156118e3576118e261186a565b5b60006118f1848285016118b8565b91505092915050565b6119038161188f565b82525050565b600060608201905061191e6000830186611801565b61192b60208301856118fa565b818103604083015261193d8184611760565b9050949350505050565b600060208201905081810360008301526119618184611760565b905092915050565b7f496e76616c69642067616d652073746174650000000000000000000000000000600082015250565b600061199f601283611714565b91506119aa82611969565b602082019050919050565b600060208201905081810360008301526119ce81611992565b9050919050565b6119de8161166a565b82525050565b60006060820190506119f960008301866118fa565b611a0660208301856119d5565b611a1360408301846119d5565b949350505050565b7f4e487b7100000000000000000000000000000000000000000000000000000000600052604160045260246000fd5b7f4e487b7100000000000000000000000000000000000000000000000000000000600052602260045260246000fd5b60006002820490506001821680611a9157607f821691505b602082108103611aa457611aa3611a4a565b5b50919050565b60008190508160005260206000209050919050565b60006020601f8301049050919050565b600082821b905092915050565b600060088302611b0c7fffffffffffffffffffffffffffffffffffffffffffffffffffffffffffffffff82611acf565b611b168683611acf565b95508019841693508086168417925050509392505050565b6000819050919050565b6000819050919050565b6000611b5d611b58611b5384611b2e565b611b38565b611b2e565b9050919050565b6000819050919050565b611b7783611b42565b611b8b611b8382611b64565b848454611adc565b825550505050565b600090565b611ba0611b93565b611bab818484611b6e565b505050565b5b81811015611bcf57611bc4600082611b98565b600181019050611bb1565b5050565b601f821115611c1457611be581611aaa565b611bee84611abf565b81016020851015611bfd578190505b611c11611c0985611abf565b830182611bb0565b50505b505050565b600082821c905092915050565b6000611c3760001984600802611c19565b1980831691505092915050565b6000611c508383611c26565b9150826002028217905092915050565b611c6982611709565b67ffffffffffffffff811115611c8257611c81611a1b565b5b611c8c8254611a79565b611c97828285611bd3565b600060209050601f831160018114611cca5760008415611cb8578287015190505b611cc28582611c44565b865550611d2a565b601f198416611cd886611aaa565b60005b82811015611d0057848901518255600182019150602085019450602081019050611cdb565b86831015611d1d5784890151611d19601f891682611c26565b8355505b6001600288020188555050505b505050505050565b60008154611d3f81611a79565b611d498186611714565b94506001821660008114611d645760018114611d7a57611dad565b60ff198316865281151560200286019350611dad565b611d8385611aaa565b60005b83811015611da557815481890152600182019150602081019050611d86565b808801955050505b50505092915050565b6000608082019050611dcb60008301876118fa565b8181036020830152611ddd8186611d32565b9050611dec60408301856119d5565b611df960608301846119d5565b95945050505050565b6000604082019050611e1760008301856118fa565b611e2460208301846119d5565b9392505050565b6000604082019050611e4060008301856119d5565b611e4d60208301846119d5565b9392505050565b6000819050919050565b611e6f611e6a82611b2e565b611e54565b82525050565b60008160601b9050919050565b6000611e8d82611e75565b9050919050565b6000611e9f82611e82565b9050919050565b611eb7611eb28261188f565b611e94565b82525050565b600081905092915050565b6000611ed382611709565b611edd8185611ebd565b9350611eed818560208601611725565b80840191505092915050565b6000611f058287611e5e565b602082019150611f158286611e5e565b602082019150611f258285611ea6565b601482019150611f358284611ec8565b915081905095945050505050565b7f4e487b7100000000000000000000000000000000000000000000000000000000600052601260045260246000fd5b6000611f7d82611b2e565b9150611f8883611b2e565b925082611f9857611f97611f43565b5b828206905092915050565b7f4e487b7100000000000000000000000000000000000000000000000000000000600052601160045260246000fd5b6000611fdd82611b2e565b9150611fe883611b2e565b925082820190508082111561200057611fff611fa3565b5b92915050565b7f4e487b7100000000000000000000000000000000000000000000000000000000600052603260045260246000fd5b60006120408261166a565b915061204b8361166a565b9250828201905060ff81111561206457612063611fa3565b5b92915050565b60006120758261166a565b91506120808361166a565b9250828203905060ff81111561209957612098611fa3565b5b92915050565b60006020820190506120b460008301846118fa565b9291505056fea264697066735822122031a04c07880334c0cf99f86a0a50bc47c613997b8736704355b361785cd445ed64736f6c634300081c0033",
  "linkReferences": {},
  "deployedLinkReferences": {}
}