{
  "_format": "hh-sol-artifact-1",
  "contractName": "Blackjack",
  "sourceName": "contracts/BlackJackGame.sol",
  "abi": [
    {
      "inputs": [
        {
          "internalType": "address",
          "name": "",
          "type": "address"
        }
      ],
      "name": "games",
      "outputs": [
        {
          "internalType": "enum Blackjack.GameState",
          "name": "state",
          "type": "uint8"
        },
        {
          "internalType": "address",
          "name": "player",
          "type": "address"
        },
        {
          "internalType": "string",
          "name": "result",
          "type": "string"
        }
      ],
      "stateMutability": "view",
      "type": "function"
    },
    {
      "inputs": [],
      "name": "getGame",
      "outputs": [
        {
          "internalType": "uint8[]",
          "name": "playerCards",
          "type": "uint8[]"
        },
        {
          "internalType": "uint8[]",
          "name": "dealerCards",
          "type": "uint8[]"
        },
        {
          "internalType": "string",
          "name": "result",
          "type": "string"
        },
        {
          "internalType": "enum Blackjack.GameState",
          "name": "state",
          "type": "uint8"
        }
      ],
      "stateMutability": "view",
      "type": "function"
    },
    {
      "inputs": [],
      "name": "hit",
      "outputs": [],
      "stateMutability": "nonpayable",
      "type": "function"
    },
    {
      "inputs": [],
      "name": "stand",
      "outputs": [],
      "stateMutability": "nonpayable",
      "type": "function"
    },
    {
      "inputs": [],
      "name": "startGame",
      "outputs": [],
      "stateMutability": "nonpayable",
      "type": "function"
    }
  ],
  "bytecode": "0x6080604052348015600f57600080fd5b50611a338061001f6000396000f3fe608060405234801561001057600080fd5b50600436106100575760003560e01c80632ae3594a1461005c5780634494fd9f1461006657806379131a1914610087578063c2897b10146100b9578063d65ab5f2146100c3575b600080fd5b6100646100cd565b005b61006e610354565b60405161007e949392919061128c565b60405180910390f35b6100a1600480360381019061009c9190611349565b610545565b6040516100b093929190611385565b60405180910390f35b6100c1610624565b005b6100cb610af5565b005b60018060038111156100e2576100e1611215565b5b6000803373ffffffffffffffffffffffffffffffffffffffff1673ffffffffffffffffffffffffffffffffffffffff16815260200190815260200160002060020160009054906101000a900460ff16600381111561014357610142611215565b5b14610183576040517f08c379a000000000000000000000000000000000000000000000000000000000815260040161017a9061140f565b60405180910390fd5b60008060003373ffffffffffffffffffffffffffffffffffffffff1673ffffffffffffffffffffffffffffffffffffffff1681526020019081526020016000209050806000016102076040518060400160405280600381526020017f4849540000000000000000000000000000000000000000000000000000000000815250610f1d565b90806001815401808255809150506001900390600052602060002090602091828204019190069091909190916101000a81548160ff021916908360ff16021790555060006102cc826000018054806020026020016040519081016040528092919081815260200182805480156102c257602002820191906000526020600020906000905b82829054906101000a900460ff1660ff168152602001906001019060208260000104928301926001038202915080841161028b5790505b5050505050610f6e565b905060158160ff16111561034f5760038260020160006101000a81548160ff0219169083600381111561030257610301611215565b5b02179055506040518060400160405280601a81526020017f506c617965722042757374732e204465616c65722057696e732100000000000081525082600301908161034d9190611674565b505b505050565b60608060606000806000803373ffffffffffffffffffffffffffffffffffffffff1673ffffffffffffffffffffffffffffffffffffffff16815260200190815260200160002090508060000181600101826003018360020160009054906101000a900460ff168380548060200260200160405190810160405280929190818152602001828054801561042b57602002820191906000526020600020906000905b82829054906101000a900460ff1660ff16815260200190600101906020826000010492830192600103820291508084116103f45790505b50505050509350828054806020026020016040519081016040528092919081815260200182805480156104a357602002820191906000526020600020906000905b82829054906101000a900460ff1660ff168152602001906001019060208260000104928301926001038202915080841161046c5790505b505050505092508180546104b69061148d565b80601f01602080910402602001604051908101604052809291908181526020018280546104e29061148d565b801561052f5780601f106105045761010080835404028352916020019161052f565b820191906000526020600020905b81548152906001019060200180831161051257829003601f168201915b5050505050915094509450945094505090919293565b60006020528060005260406000206000915090508060020160009054906101000a900460ff16908060020160019054906101000a900473ffffffffffffffffffffffffffffffffffffffff16908060030180546105a19061148d565b80601f01602080910402602001604051908101604052809291908181526020018280546105cd9061148d565b801561061a5780601f106105ef5761010080835404028352916020019161061a565b820191906000526020600020905b8154815290600101906020018083116105fd57829003601f168201915b5050505050905083565b600180600381111561063957610638611215565b5b6000803373ffffffffffffffffffffffffffffffffffffffff1673ffffffffffffffffffffffffffffffffffffffff16815260200190815260200160002060020160009054906101000a900460ff16600381111561069a57610699611215565b5b146106da576040517f08c379a00000000000000000000000000000000000000000000000000000000081526004016106d19061140f565b60405180910390fd5b60008060003373ffffffffffffffffffffffffffffffffffffffff1673ffffffffffffffffffffffffffffffffffffffff168152602001908152602001600020905060028160020160006101000a81548160ff0219169083600381111561074457610743611215565b5b021790555060006107cc826001018054806020026020016040519081016040528092919081815260200182805480156107c257602002820191906000526020600020906000905b82829054906101000a900460ff1660ff168152602001906001019060208260000104928301926001038202915080841161078b5790505b5050505050610f6e565b90505b60118160ff1610156108e7578160010161081d6040518060400160405280600a81526020017f4445414c45525f48495400000000000000000000000000000000000000000000815250610f1d565b90806001815401808255809150506001900390600052602060002090602091828204019190069091909190916101000a81548160ff021916908360ff1602179055506108e0826001018054806020026020016040519081016040528092919081815260200182805480156108d657602002820191906000526020600020906000905b82829054906101000a900460ff1660ff168152602001906001019060208260000104928301926001038202915080841161089f5790505b5050505050610f6e565b90506107cf565b600061096a8360000180548060200260200160405190810160405280929190818152602001828054801561096057602002820191906000526020600020906000905b82829054906101000a900460ff1660ff16815260200190600101906020826000010492830192600103820291508084116109295790505b5050505050610f6e565b905060038360020160006101000a81548160ff0219169083600381111561099457610993611215565b5b021790555060158260ff1611156109f1576040518060400160405280601a81526020017f4465616c65722042757374732e20506c617965722057696e73210000000000008152508360030190816109eb9190611674565b50610aef565b8060ff168260ff161115610a4b576040518060400160405280600c81526020017f4465616c65722057696e73210000000000000000000000000000000000000000815250836003019081610a459190611674565b50610aee565b8060ff168260ff161015610aa5576040518060400160405280600c81526020017f506c617965722057696e73210000000000000000000000000000000000000000815250836003019081610a9f9190611674565b50610aed565b6040518060400160405280600b81526020017f5075736820284472617729000000000000000000000000000000000000000000815250836003019081610aeb9190611674565b505b5b5b50505050565b60008060003373ffffffffffffffffffffffffffffffffffffffff1673ffffffffffffffffffffffffffffffffffffffff168152602001908152602001600020905060006003811115610b4b57610b4a611215565b5b8160020160009054906101000a900460ff166003811115610b6f57610b6e611215565b5b1480610baf5750600380811115610b8957610b88611215565b5b8160020160009054906101000a900460ff166003811115610bad57610bac611215565b5b145b610bee576040517f08c379a0000000000000000000000000000000000000000000000000000000008152600401610be590611792565b60405180910390fd5b6000803373ffffffffffffffffffffffffffffffffffffffff1673ffffffffffffffffffffffffffffffffffffffff16815260200190815260200160002060008082016000610c3d9190611035565b600182016000610c4d9190611035565b6002820160006101000a81549060ff02191690556002820160016101000a81549073ffffffffffffffffffffffffffffffffffffffff0219169055600382016000610c98919061105d565b5050338160020160016101000a81548173ffffffffffffffffffffffffffffffffffffffff021916908373ffffffffffffffffffffffffffffffffffffffff16021790555080600001610d1f6040518060400160405280600781526020017f504c415945523100000000000000000000000000000000000000000000000000815250610f1d565b90806001815401808255809150506001900390600052602060002090602091828204019190069091909190916101000a81548160ff021916908360ff16021790555080600001610da36040518060400160405280600781526020017f504c415945523200000000000000000000000000000000000000000000000000815250610f1d565b90806001815401808255809150506001900390600052602060002090602091828204019190069091909190916101000a81548160ff021916908360ff16021790555080600101610e276040518060400160405280600781526020017f4445414c45523100000000000000000000000000000000000000000000000000815250610f1d565b90806001815401808255809150506001900390600052602060002090602091828204019190069091909190916101000a81548160ff021916908360ff16021790555080600101610eab6040518060400160405280600781526020017f4445414c45523200000000000000000000000000000000000000000000000000815250610f1d565b90806001815401808255809150506001900390600052602060002090602091828204019190069091909190916101000a81548160ff021916908360ff16021790555060018160020160006101000a81548160ff02191690836003811115610f1557610f14611215565b5b021790555050565b60006001600b42443386604051602001610f3a9493929190611857565b6040516020818303038152906040528051906020012060001c610f5d91906118d0565b610f679190611930565b9050919050565b600080600090506000915060005b8351811015610fef576000848281518110610f9a57610f99611964565b5b6020026020010151905060018160ff1603610fd257600183610fbc9190611993565b9250600b84610fcb9190611993565b9350610fe1565b8084610fde9190611993565b93505b508080600101915050610f7c565b505b60158260ff16118015611007575060008160ff16115b1561102f57600a8261101991906119c8565b915060018161102891906119c8565b9050610ff1565b50919050565b50805460008255601f01602090049060005260206000209081019061105a919061109d565b50565b5080546110699061148d565b6000825580601f1061107b575061109a565b601f016020900490600052602060002090810190611099919061109d565b5b50565b5b808211156110b657600081600090555060010161109e565b5090565b600081519050919050565b600082825260208201905092915050565b6000819050602082019050919050565b600060ff82169050919050565b6110fc816110e6565b82525050565b600061110e83836110f3565b60208301905092915050565b6000602082019050919050565b6000611132826110ba565b61113c81856110c5565b9350611147836110d6565b8060005b8381101561117857815161115f8882611102565b975061116a8361111a565b92505060018101905061114b565b5085935050505092915050565b600081519050919050565b600082825260208201905092915050565b60005b838110156111bf5780820151818401526020810190506111a4565b60008484015250505050565b6000601f19601f8301169050919050565b60006111e782611185565b6111f18185611190565b93506112018185602086016111a1565b61120a816111cb565b840191505092915050565b7f4e487b7100000000000000000000000000000000000000000000000000000000600052602160045260246000fd5b6004811061125557611254611215565b5b50565b600081905061126682611244565b919050565b600061127682611258565b9050919050565b6112868161126b565b82525050565b600060808201905081810360008301526112a68187611127565b905081810360208301526112ba8186611127565b905081810360408301526112ce81856111dc565b90506112dd606083018461127d565b95945050505050565b600080fd5b600073ffffffffffffffffffffffffffffffffffffffff82169050919050565b6000611316826112eb565b9050919050565b6113268161130b565b811461133157600080fd5b50565b6000813590506113438161131d565b92915050565b60006020828403121561135f5761135e6112e6565b5b600061136d84828501611334565b91505092915050565b61137f8161130b565b82525050565b600060608201905061139a600083018661127d565b6113a76020830185611376565b81810360408301526113b981846111dc565b9050949350505050565b7f496e76616c69642067616d652073746174650000000000000000000000000000600082015250565b60006113f9601283611190565b9150611404826113c3565b602082019050919050565b60006020820190508181036000830152611428816113ec565b9050919050565b7f4e487b7100000000000000000000000000000000000000000000000000000000600052604160045260246000fd5b7f4e487b7100000000000000000000000000000000000000000000000000000000600052602260045260246000fd5b600060028204905060018216806114a557607f821691505b6020821081036114b8576114b761145e565b5b50919050565b60008190508160005260206000209050919050565b60006020601f8301049050919050565b600082821b905092915050565b6000600883026115207fffffffffffffffffffffffffffffffffffffffffffffffffffffffffffffffff826114e3565b61152a86836114e3565b95508019841693508086168417925050509392505050565b6000819050919050565b6000819050919050565b600061157161156c61156784611542565b61154c565b611542565b9050919050565b6000819050919050565b61158b83611556565b61159f61159782611578565b8484546114f0565b825550505050565b600090565b6115b46115a7565b6115bf818484611582565b505050565b5b818110156115e3576115d86000826115ac565b6001810190506115c5565b5050565b601f821115611628576115f9816114be565b611602846114d3565b81016020851015611611578190505b61162561161d856114d3565b8301826115c4565b50505b505050565b600082821c905092915050565b600061164b6000198460080261162d565b1980831691505092915050565b6000611664838361163a565b9150826002028217905092915050565b61167d82611185565b67ffffffffffffffff8111156116965761169561142f565b5b6116a0825461148d565b6116ab8282856115e7565b600060209050601f8311600181146116de57600084156116cc578287015190505b6116d68582611658565b86555061173e565b601f1984166116ec866114be565b60005b82811015611714578489015182556001820191506020850194506020810190506116ef565b86831015611731578489015161172d601f89168261163a565b8355505b6001600288020188555050505b505050505050565b7f47616d6520616c726561647920696e2070726f67726573730000000000000000600082015250565b600061177c601883611190565b915061178782611746565b602082019050919050565b600060208201905081810360008301526117ab8161176f565b9050919050565b6000819050919050565b6117cd6117c882611542565b6117b2565b82525050565b60008160601b9050919050565b60006117eb826117d3565b9050919050565b60006117fd826117e0565b9050919050565b6118156118108261130b565b6117f2565b82525050565b600081905092915050565b600061183182611185565b61183b818561181b565b935061184b8185602086016111a1565b80840191505092915050565b600061186382876117bc565b60208201915061187382866117bc565b6020820191506118838285611804565b6014820191506118938284611826565b915081905095945050505050565b7f4e487b7100000000000000000000000000000000000000000000000000000000600052601260045260246000fd5b60006118db82611542565b91506118e683611542565b9250826118f6576118f56118a1565b5b828206905092915050565b7f4e487b7100000000000000000000000000000000000000000000000000000000600052601160045260246000fd5b600061193b82611542565b915061194683611542565b925082820190508082111561195e5761195d611901565b5b92915050565b7f4e487b7100000000000000000000000000000000000000000000000000000000600052603260045260246000fd5b600061199e826110e6565b91506119a9836110e6565b9250828201905060ff8111156119c2576119c1611901565b5b92915050565b60006119d3826110e6565b91506119de836110e6565b9250828203905060ff8111156119f7576119f6611901565b5b9291505056fea2646970667358221220de398836e7c79fa89f469f74719f5653eb68b981ea72b93f3befa8bdd592e02064736f6c634300081c0033",
  "linkReferences": {},
  "deployedLinkReferences": {}
}