{
  "_format": "hh-sol-artifact-1",
  "contractName": "BlackjackSimple",
  "sourceName": "contracts/BlackJackGame.sol",
  "abi": [
    {
      "anonymous": false,
      "inputs": [
        {
          "indexed": false,
          "internalType": "uint8",
          "name": "card",
          "type": "uint8"
        },
        {
          "indexed": false,
          "internalType": "uint8",
          "name": "total",
          "type": "uint8"
        }
      ],
      "name": "DealerHit",
      "type": "event"
    },
    {
      "anonymous": false,
      "inputs": [
        {
          "indexed": false,
          "internalType": "address",
          "name": "player",
          "type": "address"
        },
        {
          "indexed": false,
          "internalType": "string",
          "name": "result",
          "type": "string"
        },
        {
          "indexed": false,
          "internalType": "uint8",
          "name": "playerTotal",
          "type": "uint8"
        },
        {
          "indexed": false,
          "internalType": "uint8",
          "name": "dealerTotal",
          "type": "uint8"
        }
      ],
      "name": "GameFinished",
      "type": "event"
    },
    {
      "anonymous": false,
      "inputs": [
        {
          "indexed": false,
          "internalType": "address",
          "name": "player",
          "type": "address"
        }
      ],
      "name": "GameStarted",
      "type": "event"
    },
    {
      "anonymous": false,
      "inputs": [
        {
          "indexed": false,
          "internalType": "address",
          "name": "player",
          "type": "address"
        },
        {
          "indexed": false,
          "internalType": "uint8",
          "name": "card",
          "type": "uint8"
        },
        {
          "indexed": false,
          "internalType": "uint8",
          "name": "total",
          "type": "uint8"
        }
      ],
      "name": "PlayerHit",
      "type": "event"
    },
    {
      "anonymous": false,
      "inputs": [
        {
          "indexed": false,
          "internalType": "address",
          "name": "player",
          "type": "address"
        },
        {
          "indexed": false,
          "internalType": "uint8",
          "name": "total",
          "type": "uint8"
        }
      ],
      "name": "PlayerStand",
      "type": "event"
    },
    {
      "inputs": [
        {
          "internalType": "address",
          "name": "",
          "type": "address"
        }
      ],
      "name": "games",
      "outputs": [
        {
          "internalType": "enum BlackjackSimple.GameState",
          "name": "state",
          "type": "uint8"
        },
        {
          "internalType": "address",
          "name": "player",
          "type": "address"
        },
        {
          "internalType": "string",
          "name": "result",
          "type": "string"
        }
      ],
      "stateMutability": "view",
      "type": "function"
    },
    {
      "inputs": [],
      "name": "getGame",
      "outputs": [
        {
          "internalType": "uint8[]",
          "name": "playerCards",
          "type": "uint8[]"
        },
        {
          "internalType": "uint8[]",
          "name": "dealerCards",
          "type": "uint8[]"
        },
        {
          "internalType": "string",
          "name": "result",
          "type": "string"
        },
        {
          "internalType": "enum BlackjackSimple.GameState",
          "name": "state",
          "type": "uint8"
        }
      ],
      "stateMutability": "view",
      "type": "function"
    },
    {
      "inputs": [],
      "name": "hit",
      "outputs": [],
      "stateMutability": "nonpayable",
      "type": "function"
    },
    {
      "inputs": [],
      "name": "restartGame",
      "outputs": [],
      "stateMutability": "nonpayable",
      "type": "function"
    },
    {
      "inputs": [],
      "name": "stand",
      "outputs": [],
      "stateMutability": "nonpayable",
      "type": "function"
    },
    {
      "inputs": [],
      "name": "startGame",
      "outputs": [],
      "stateMutability": "nonpayable",
      "type": "function"
    }
  ],
  "bytecode": "0x6080604052348015600f57600080fd5b506120008061001f6000396000f3fe608060405234801561001057600080fd5b50600436106100625760003560e01c80632ae3594a146100675780634494fd9f1461007157806379131a19146100925780638d25af04146100c4578063c2897b10146100ce578063d65ab5f2146100d8575b600080fd5b61006f6100e2565b005b61007961046a565b6040516100899493929190611742565b60405180910390f35b6100ac60048036038101906100a791906117ff565b61065b565b6040516100bb9392919061183b565b60405180910390f35b6100cc61073a565b005b6100d6610745565b005b6100e0610d4e565b005b60018060038111156100f7576100f66116cb565b5b6000803373ffffffffffffffffffffffffffffffffffffffff1673ffffffffffffffffffffffffffffffffffffffff16815260200190815260200160002060020160009054906101000a900460ff166003811115610158576101576116cb565b5b14610198576040517f08c379a000000000000000000000000000000000000000000000000000000000815260040161018f906118c5565b60405180910390fd5b60008060003373ffffffffffffffffffffffffffffffffffffffff1673ffffffffffffffffffffffffffffffffffffffff1681526020019081526020016000209050600061021a6040518060400160405280600381526020017f4849540000000000000000000000000000000000000000000000000000000000815250610d59565b9050816000018190806001815401808255809150506001900390600052602060002090602091828204019190069091909190916101000a81548160ff021916908360ff16021790555060006102e6836000018054806020026020016040519081016040528092919081815260200182805480156102dc57602002820191906000526020600020906000905b82829054906101000a900460ff1660ff16815260200190600101906020826000010492830192600103820291508084116102a55790505b5050505050610daa565b90507ff17e3dfcb921e0a674e8a8df9ca1da80e816954b1543a22ca14477fa5221ae7c33838360405161031b939291906118f4565b60405180910390a160158160ff1611156104645760038360020160006101000a81548160ff02191690836003811115610357576103566116cb565b5b02179055506040518060400160405280601a81526020017f506c617965722042757374732e204465616c65722057696e73210000000000008152508360030190816103a29190611b70565b507f983d315921bbcfd1d6803a3ecc48f7f3cc1fd22bd65e7ad5399959069ffd261a33846003018361044b8760010180548060200260200160405190810160405280929190818152602001828054801561044157602002820191906000526020600020906000905b82829054906101000a900460ff1660ff168152602001906001019060208260000104928301926001038202915080841161040a5790505b5050505050610daa565b60405161045b9493929190611cc6565b60405180910390a15b50505050565b60608060606000806000803373ffffffffffffffffffffffffffffffffffffffff1673ffffffffffffffffffffffffffffffffffffffff16815260200190815260200160002090508060000181600101826003018360020160009054906101000a900460ff168380548060200260200160405190810160405280929190818152602001828054801561054157602002820191906000526020600020906000905b82829054906101000a900460ff1660ff168152602001906001019060208260000104928301926001038202915080841161050a5790505b50505050509350828054806020026020016040519081016040528092919081815260200182805480156105b957602002820191906000526020600020906000905b82829054906101000a900460ff1660ff16815260200190600101906020826000010492830192600103820291508084116105825790505b505050505092508180546105cc90611989565b80601f01602080910402602001604051908101604052809291908181526020018280546105f890611989565b80156106455780601f1061061a57610100808354040283529160200191610645565b820191906000526020600020905b81548152906001019060200180831161062857829003601f168201915b5050505050915094509450945094505090919293565b60006020528060005260406000206000915090508060020160009054906101000a900460ff16908060020160019054906101000a900473ffffffffffffffffffffffffffffffffffffffff16908060030180546106b790611989565b80601f01602080910402602001604051908101604052809291908181526020018280546106e390611989565b80156107305780601f1061070557610100808354040283529160200191610730565b820191906000526020600020905b81548152906001019060200180831161071357829003601f168201915b5050505050905083565b61074333610e71565b565b600180600381111561075a576107596116cb565b5b6000803373ffffffffffffffffffffffffffffffffffffffff1673ffffffffffffffffffffffffffffffffffffffff16815260200190815260200160002060020160009054906101000a900460ff1660038111156107bb576107ba6116cb565b5b146107fb576040517f08c379a00000000000000000000000000000000000000000000000000000000081526004016107f2906118c5565b60405180910390fd5b60008060003373ffffffffffffffffffffffffffffffffffffffff1673ffffffffffffffffffffffffffffffffffffffff168152602001908152602001600020905060028160020160006101000a81548160ff02191690836003811115610865576108646116cb565b5b02179055507fefcd6ca5555a0603d3bb6e1954b2abf98ddb7f63aac9f4f13be10565cea290853361090d8360000180548060200260200160405190810160405280929190818152602001828054801561090357602002820191906000526020600020906000905b82829054906101000a900460ff1660ff16815260200190600101906020826000010492830192600103820291508084116108cc5790505b5050505050610daa565b60405161091b929190611d12565b60405180910390a160006109a68260010180548060200260200160405190810160405280929190818152602001828054801561099c57602002820191906000526020600020906000905b82829054906101000a900460ff1660ff16815260200190600101906020826000010492830192600103820291508084116109655790505b5050505050610daa565b90505b60118160ff161015610b005760006109f56040518060400160405280600a81526020017f4445414c45525f48495400000000000000000000000000000000000000000000815250610d59565b9050826001018190806001815401808255809150506001900390600052602060002090602091828204019190069091909190916101000a81548160ff021916908360ff160217905550610abf83600101805480602002602001604051908101604052809291908181526020018280548015610ab557602002820191906000526020600020906000905b82829054906101000a900460ff1660ff1681526020019060010190602082600001049283019260010382029150808411610a7e5790505b5050505050610daa565b91507f7350c1c406604811988f3872a9343502ae3ca69ce67a32c8b5efc0f1165e85368183604051610af2929190611d3b565b60405180910390a1506109a9565b6000610b8383600001805480602002602001604051908101604052809291908181526020018280548015610b7957602002820191906000526020600020906000905b82829054906101000a900460ff1660ff1681526020019060010190602082600001049283019260010382029150808411610b425790505b5050505050610daa565b905060038360020160006101000a81548160ff02191690836003811115610bad57610bac6116cb565b5b021790555060158260ff161115610c0a576040518060400160405280601a81526020017f4465616c65722042757374732e20506c617965722057696e7321000000000000815250836003019081610c049190611b70565b50610d08565b8060ff168260ff161115610c64576040518060400160405280600c81526020017f4465616c65722057696e73210000000000000000000000000000000000000000815250836003019081610c5e9190611b70565b50610d07565b8060ff168260ff161015610cbe576040518060400160405280600c81526020017f506c617965722057696e73210000000000000000000000000000000000000000815250836003019081610cb89190611b70565b50610d06565b6040518060400160405280600b81526020017f5075736820284472617729000000000000000000000000000000000000000000815250836003019081610d049190611b70565b505b5b5b7f983d315921bbcfd1d6803a3ecc48f7f3cc1fd22bd65e7ad5399959069ffd261a33846003018385604051610d409493929190611cc6565b60405180910390a150505050565b610d5733610e71565b565b60006001600b42443386604051602001610d769493929190611e09565b6040516020818303038152906040528051906020012060001c610d999190611e82565b610da39190611ee2565b9050919050565b600080600090506000915060005b8351811015610e2b576000848281518110610dd657610dd5611f16565b5b6020026020010151905060018160ff1603610e0e57600183610df89190611f45565b9250600b84610e079190611f45565b9350610e1d565b8084610e1a9190611f45565b93505b508080600101915050610db8565b505b60158260ff16118015610e43575060008160ff16115b15610e6b57600a82610e559190611f7a565b9150600181610e649190611f7a565b9050610e2d565b50919050565b60008060008373ffffffffffffffffffffffffffffffffffffffff1673ffffffffffffffffffffffffffffffffffffffff16815260200190815260200160002090506000808373ffffffffffffffffffffffffffffffffffffffff1673ffffffffffffffffffffffffffffffffffffffff16815260200190815260200160002060008082016000610f0291906114eb565b600182016000610f1291906114eb565b6002820160006101000a81549060ff02191690556002820160016101000a81549073ffffffffffffffffffffffffffffffffffffffff0219169055600382016000610f5d9190611513565b5050818160020160016101000a81548173ffffffffffffffffffffffffffffffffffffffff021916908373ffffffffffffffffffffffffffffffffffffffff16021790555080600001610fe46040518060400160405280600781526020017f504c415945523100000000000000000000000000000000000000000000000000815250610d59565b90806001815401808255809150506001900390600052602060002090602091828204019190069091909190916101000a81548160ff021916908360ff160217905550806000016110686040518060400160405280600781526020017f504c415945523200000000000000000000000000000000000000000000000000815250610d59565b90806001815401808255809150506001900390600052602060002090602091828204019190069091909190916101000a81548160ff021916908360ff160217905550806001016110ec6040518060400160405280600781526020017f4445414c45523100000000000000000000000000000000000000000000000000815250610d59565b90806001815401808255809150506001900390600052602060002090602091828204019190069091909190916101000a81548160ff021916908360ff160217905550806001016111706040518060400160405280600781526020017f4445414c45523200000000000000000000000000000000000000000000000000815250610d59565b90806001815401808255809150506001900390600052602060002090602091828204019190069091909190916101000a81548160ff021916908360ff16021790555060018160020160006101000a81548160ff021916908360038111156111da576111d96116cb565b5b02179055507f67cf7f1535e1c1323fe4e76266f7d55f0c1f67fdf449db65e014f9d35881514d8260405161120e9190611faf565b60405180910390a17ff17e3dfcb921e0a674e8a8df9ca1da80e816954b1543a22ca14477fa5221ae7c828260000160008154811061124f5761124e611f16565b5b90600052602060002090602091828204019190069054906101000a900460ff166112f0846000018054806020026020016040519081016040528092919081815260200182805480156112e657602002820191906000526020600020906000905b82829054906101000a900460ff1660ff16815260200190600101906020826000010492830192600103820291508084116112af5790505b5050505050610daa565b6040516112ff939291906118f4565b60405180910390a17ff17e3dfcb921e0a674e8a8df9ca1da80e816954b1543a22ca14477fa5221ae7c82826000016001815481106113405761133f611f16565b5b90600052602060002090602091828204019190069054906101000a900460ff166113e1846000018054806020026020016040519081016040528092919081815260200182805480156113d757602002820191906000526020600020906000905b82829054906101000a900460ff1660ff16815260200190600101906020826000010492830192600103820291508084116113a05790505b5050505050610daa565b6040516113f0939291906118f4565b60405180910390a17f7350c1c406604811988f3872a9343502ae3ca69ce67a32c8b5efc0f1165e8536816001016000815481106114305761142f611f16565b5b90600052602060002090602091828204019190069054906101000a900460ff166114d1836001018054806020026020016040519081016040528092919081815260200182805480156114c757602002820191906000526020600020906000905b82829054906101000a900460ff1660ff16815260200190600101906020826000010492830192600103820291508084116114905790505b5050505050610daa565b6040516114df929190611d3b565b60405180910390a15050565b50805460008255601f0160209004906000526020600020908101906115109190611553565b50565b50805461151f90611989565b6000825580601f106115315750611550565b601f01602090049060005260206000209081019061154f9190611553565b5b50565b5b8082111561156c576000816000905550600101611554565b5090565b600081519050919050565b600082825260208201905092915050565b6000819050602082019050919050565b600060ff82169050919050565b6115b28161159c565b82525050565b60006115c483836115a9565b60208301905092915050565b6000602082019050919050565b60006115e882611570565b6115f2818561157b565b93506115fd8361158c565b8060005b8381101561162e57815161161588826115b8565b9750611620836115d0565b925050600181019050611601565b5085935050505092915050565b600081519050919050565b600082825260208201905092915050565b60005b8381101561167557808201518184015260208101905061165a565b60008484015250505050565b6000601f19601f8301169050919050565b600061169d8261163b565b6116a78185611646565b93506116b7818560208601611657565b6116c081611681565b840191505092915050565b7f4e487b7100000000000000000000000000000000000000000000000000000000600052602160045260246000fd5b6004811061170b5761170a6116cb565b5b50565b600081905061171c826116fa565b919050565b600061172c8261170e565b9050919050565b61173c81611721565b82525050565b6000608082019050818103600083015261175c81876115dd565b9050818103602083015261177081866115dd565b905081810360408301526117848185611692565b90506117936060830184611733565b95945050505050565b600080fd5b600073ffffffffffffffffffffffffffffffffffffffff82169050919050565b60006117cc826117a1565b9050919050565b6117dc816117c1565b81146117e757600080fd5b50565b6000813590506117f9816117d3565b92915050565b6000602082840312156118155761181461179c565b5b6000611823848285016117ea565b91505092915050565b611835816117c1565b82525050565b60006060820190506118506000830186611733565b61185d602083018561182c565b818103604083015261186f8184611692565b9050949350505050565b7f496e76616c69642067616d652073746174650000000000000000000000000000600082015250565b60006118af601283611646565b91506118ba82611879565b602082019050919050565b600060208201905081810360008301526118de816118a2565b9050919050565b6118ee8161159c565b82525050565b6000606082019050611909600083018661182c565b61191660208301856118e5565b61192360408301846118e5565b949350505050565b7f4e487b7100000000000000000000000000000000000000000000000000000000600052604160045260246000fd5b7f4e487b7100000000000000000000000000000000000000000000000000000000600052602260045260246000fd5b600060028204905060018216806119a157607f821691505b6020821081036119b4576119b361195a565b5b50919050565b60008190508160005260206000209050919050565b60006020601f8301049050919050565b600082821b905092915050565b600060088302611a1c7fffffffffffffffffffffffffffffffffffffffffffffffffffffffffffffffff826119df565b611a2686836119df565b95508019841693508086168417925050509392505050565b6000819050919050565b6000819050919050565b6000611a6d611a68611a6384611a3e565b611a48565b611a3e565b9050919050565b6000819050919050565b611a8783611a52565b611a9b611a9382611a74565b8484546119ec565b825550505050565b600090565b611ab0611aa3565b611abb818484611a7e565b505050565b5b81811015611adf57611ad4600082611aa8565b600181019050611ac1565b5050565b601f821115611b2457611af5816119ba565b611afe846119cf565b81016020851015611b0d578190505b611b21611b19856119cf565b830182611ac0565b50505b505050565b600082821c905092915050565b6000611b4760001984600802611b29565b1980831691505092915050565b6000611b608383611b36565b9150826002028217905092915050565b611b798261163b565b67ffffffffffffffff811115611b9257611b9161192b565b5b611b9c8254611989565b611ba7828285611ae3565b600060209050601f831160018114611bda5760008415611bc8578287015190505b611bd28582611b54565b865550611c3a565b601f198416611be8866119ba565b60005b82811015611c1057848901518255600182019150602085019450602081019050611beb565b86831015611c2d5784890151611c29601f891682611b36565b8355505b6001600288020188555050505b505050505050565b60008154611c4f81611989565b611c598186611646565b94506001821660008114611c745760018114611c8a57611cbd565b60ff198316865281151560200286019350611cbd565b611c93856119ba565b60005b83811015611cb557815481890152600182019150602081019050611c96565b808801955050505b50505092915050565b6000608082019050611cdb600083018761182c565b8181036020830152611ced8186611c42565b9050611cfc60408301856118e5565b611d0960608301846118e5565b95945050505050565b6000604082019050611d27600083018561182c565b611d3460208301846118e5565b9392505050565b6000604082019050611d5060008301856118e5565b611d5d60208301846118e5565b9392505050565b6000819050919050565b611d7f611d7a82611a3e565b611d64565b82525050565b60008160601b9050919050565b6000611d9d82611d85565b9050919050565b6000611daf82611d92565b9050919050565b611dc7611dc2826117c1565b611da4565b82525050565b600081905092915050565b6000611de38261163b565b611ded8185611dcd565b9350611dfd818560208601611657565b80840191505092915050565b6000611e158287611d6e565b602082019150611e258286611d6e565b602082019150611e358285611db6565b601482019150611e458284611dd8565b915081905095945050505050565b7f4e487b7100000000000000000000000000000000000000000000000000000000600052601260045260246000fd5b6000611e8d82611a3e565b9150611e9883611a3e565b925082611ea857611ea7611e53565b5b828206905092915050565b7f4e487b7100000000000000000000000000000000000000000000000000000000600052601160045260246000fd5b6000611eed82611a3e565b9150611ef883611a3e565b9250828201905080821115611f1057611f0f611eb3565b5b92915050565b7f4e487b7100000000000000000000000000000000000000000000000000000000600052603260045260246000fd5b6000611f508261159c565b9150611f5b8361159c565b9250828201905060ff811115611f7457611f73611eb3565b5b92915050565b6000611f858261159c565b9150611f908361159c565b9250828203905060ff811115611fa957611fa8611eb3565b5b92915050565b6000602082019050611fc4600083018461182c565b9291505056fea26469706673582212203e28f23e491926773584449daac8cad8ee4632ec9635cb24a3dfad0bf624178364736f6c634300081c0033",
  "linkReferences": {},
  "deployedLinkReferences": {}
}